:020000040000FA
:100000000C9463000C948B000C948B000C94C90628
:100010000C94C9060C94C9060C948B000C948B00AC
:100020000C948B000C948B000C948B000C948B0024
:100030000C948B000C948B000C948B000C948B0014
:100040000C947F060C948B000C944D060C942706A0
:100050000C948B000C948B000C948B000C948B00F4
:100060000C9441070C948B00000000002400270032
:100070002A0000000008000201000003040700003D
:1000800000000000000000000000230026002900FE
:1000900000000000250028002B00040404040404D0
:1000A0000404020202020202030303030303010227
:1000B00004081020408001020408102001020408F6
:1000C00010206008D40B11241FBECFEFD8E0DEBF94
:1000D000CDBF11E0A0E0B1E0EAE9F8E102C005908F
:1000E0000D92AA3DB107D9F723E0AAEDB1E001C016
:1000F0001D92A53BB207E1F710E0C2E6D0E004C0D4
:100100002197FE010E943A0CC136D107C9F70E941F
:1001100031090C94400C0C94000008950895AF929E
:10012000BF92CF92DF92EF92FF920F931F93CF93E4
:10013000DF936C017B018B01040F151FEB015E0146
:10014000AE18BF08C017D10759F06991D601ED91DB
:10015000FC910190F081E02DC6010995892B79F77A
:10016000C501DF91CF911F910F91FF90EF90DF902C
:10017000CF90BF90AF900895FC01538D448D252FF3
:1001800030E0842F90E0821B930B541710F0CF9631
:10019000089501970895FC01918D828D981761F063
:1001A000A28DAE0FBF2FB11D5D968C91928D9F5F7A
:1001B0009F73928F90E008958FEF9FEF0895FC0159
:1001C000918D828D981731F0828DE80FF11D858D0C
:1001D00090E008958FEF9FEF0895FC01918D228D9F
:1001E000892F90E0805C9F4F821B91098F73992724
:1001F000089581EE92E00E94ED0021E0892B09F440
:1002000020E0822F089580E090E0892B29F00E9461
:10021000F90081110C9400000895FC01A48DA80F31
:10022000B92FB11DA35ABF4F2C91848D90E0019638
:100230008F739927848FA689B7892C93A089B18958
:100240008C91837080648C93938D848D981306C0F9
:100250000288F389E02D80818F7D80830895EF925D
:10026000FF920F931F93CF93DF93EC0181E0888F70
:100270009B8D8C8D98131AC0E889F989808185FF40
:1002800015C09FB7F894EE89FF896083E889F989E2
:1002900080818370806480839FBF81E090E0DF91E4
:1002A000CF911F910F91FF90EF900895F62E0B8D37
:1002B00010E00F5F1F4F0F731127E02E8C8D8E11F2
:1002C0000CC00FB607FCFACFE889F989808185FF59
:1002D000F5CFCE010E940D01F1CFEB8DEC0FFD2F7C
:1002E000F11DE35AFF4FF0829FB7F8940B8FEA8914
:1002F000FB8980818062CFCFCF93DF93EC01888D23
:100300008823B9F0AA89BB89E889F9898C9185FD90
:1003100003C0808186FD0DC00FB607FCF7CF8C911E
:1003200085FFF2CF808185FFEDCFCE010E940D01C8
:10033000E9CFDF91CF91089590E0FC01EE58FF4F97
:100340002491FC01E255FF4F3491FC01E656FF4F2A
:10035000E491EE23C9F0222339F0233001F1A8F40F
:10036000213019F1223029F1F0E0EE0FFF1FE057A4
:10037000FF4FA591B4918FB7F894EC91611126C00D
:1003800030953E233C938FBF08952730A9F0283045
:10039000C9F0243049F7809180008F7D03C080919F
:1003A00080008F7780938000DFCF84B58F7784BD06
:1003B000DBCF84B58F7DFBCF8091B0008F778093AA
:1003C000B000D2CF8091B0008F7DF9CF3E2BDACF35
:1003D000CF93DF9390E0FC01E255FF4F24918656C6
:1003E0009F4FFC0184918823D1F090E0880F991FE2
:1003F000FC01E859FF4FA591B491FC01E057FF4F74
:10040000C591D49161110EC09FB7F8948C91E22FE1
:10041000E0958E238C932881E223E8839FBFDF91B0
:10042000CF9108958FB7F894EC91E22BEC938FBFA6
:10043000F6CF3FB7F8948091D1029091D202A0916B
:10044000D302B091D40226B5A89B05C02F3F19F066
:100450000196A11DB11D3FBFBA2FA92F982F882744
:10046000BC01CD01620F711D811D911D42E0660F1F
:10047000771F881F991F4A95D1F708958F929F92F1
:10048000AF92BF92CF92DF92EF92FF924B015C014D
:100490000E9419026B017C010E9419026C197D09EE
:1004A0008E099F09683E734081059105A8F321E0FC
:1004B000821A9108A108B10888EEC80E83E0D81E00
:1004C000E11CF11C81149104A104B10429F7FF90EF
:1004D000EF90DF90CF90BF90AF909F908F90089556
:1004E0002091D7023091D8022817390771F49091E2
:1004F000D5028091D602981741F0E091D502F0E044
:10050000E457FD4F808190E008958FEF9FEF0895AD
:100510000895EF92FF920F931F93CF93DF93DC0127
:100520005C96ED90FC905D97E114F10479F481E024
:1005300090E013969C938E93129790E080E0DF9169
:10054000CF911F910F91FF90EF9008955196ED91EB
:10055000FC91529750968C915097982F90950FB789
:100560005E962C915E97122F127021FD6095F89483
:100570002081112319F1282B2083E7012197F1F71E
:1005800028E0462F50E0308160FF1AC0382B3083BE
:10059000E7012197F1F7BA0175956795215089F721
:1005A000112381F08081892380830FBF5C968D9118
:1005B0009C910197F1F781E090E0C1CF2923DCCF36
:1005C0003923E5CF9081892BEFCF2091D70230914D
:1005D000D8022817390771F48091D6022091D502EC
:1005E00090E0805C9F4F821B910960E470E00E9464
:1005F000F00B089590E080E008952091D7023091AB
:10060000D80228173907B9F49091D5028091D60203
:10061000981789F0E091D502F0E0E457FD4F808112
:100620002091D50230E02F5F3F4F2F733327209367
:10063000D50290E008958FEF9FEF089508952091DF
:100640001B02260F3327331F21323105ECF4209192
:100650006402FC0190E080E0243069F082E00895BB
:10066000A0911B022191AC0145505E4FA40FB52F04
:10067000B11D2C930196861798F380911B02680F89
:1006800060931B0280E0089581E008951092640257
:1006900081E08093630210923E0261E082E10E9459
:1006A0009C0161E083E10E949C01E9EBF0E0808124
:1006B0008E7F808380818D7F808388E48093B800E3
:1006C00085E48093BC000895CF93DF9391E09093ED
:1006D000FA018823B9F0C091B800D091BA00809196
:1006E000BC008A7B8093BC0060E082E10E949C0198
:1006F00060E083E10E949C010E944603D093BA000F
:10070000C093B800DF91CF910895E091E00280910D
:10071000DF02E81730F4F0E0E652FE4F808190E00F
:1007200008958FEF9FEF08959091E0028091DF028E
:100730002FEF3FEF981748F4E92FF0E0E652FE4F15
:10074000208130E09F5F9093E002C901089580917D
:10075000DF029091E002891B990B0895CF92DF92FE
:10076000EF92FF920F931F93CF93DF937C01CB0106
:100770008A0120916A02222389F0EB016B01C40EE9
:10078000D51ECC15DD0569F06991D701ED91FC917D
:100790000190F081E02DC7010995F3CF642F0E94ED
:1007A0001F03C801DF91CF911F910F91FF90EF9030
:1007B000DF90CF900895CF93DF931F92CDB7DEB730
:1007C000698320916A022223F9F02091DD02203210
:1007D00058F021E030E0FC013383228390E080E098
:1007E0000F90DF91CF9108958091DE02E82FF0E025
:1007F000E559FD4F998190838F5F8093DE0280934E
:10080000DD0281E090E0ECCF61E0CE0101960E9434
:100810001F03F7CFCF92DF92EF92FF920F931F93B8
:10082000CF93DF93FC01C48121E020936A02C0933F
:100830008B021092DE021092DD028385682B8EE718
:1008400093E00E94DB03D091DD02D13208F092C028
:100850000E9419026B017C0180916402811165C0C4
:1008600082E08093640281E0809363028FEF809343
:10087000620210926102D0936002ABE6B2E0E0E463
:10088000F2E080E0D81385C010923F0280913F02D1
:10089000CC0FC82BC0933F0280913E02813009F0FB
:1008A0007CC010923E020E9419026B017C01809173
:1008B0003F028093BB008091660290916702A091F5
:1008C0006802B0916902892B8A2B8B2B99F00E94C8
:1008D000190200916602109167022091680230911E
:1008E00069026C197D098E099F09061717072807E9
:1008F0003907E0F18091BC0083FDD9CF85EC80936E
:10090000BC000E9419026B017C018091640282305C
:1009100009F445C0809162028F3F61F180916202CB
:10092000803241F18091620225C0809166029091EF
:100930006702A0916802B0916902892B8A2B8B2BE8
:1009400009F48ACF0E941902009166021091670291
:1009500020916802309169026C197D098E099F0906
:10096000061717072807390708F076CF8091650228
:100970000E9464031092DE021092DD0210926A025D
:10098000DF91CF911F910F91FF90EF90DF90CF906B
:1009900008959D9191938F5F75CF85EEB0CF809133
:1009A000660290916702A0916802B0916902892B5A
:1009B0008A2B8B2B09F4A9CF0E94190200916602A1
:1009C0001091670220916802309169026C197D09CB
:1009D0008E099F09061717072807390708F095CFD2
:1009E000C5CF90E080E008950F931F93CF938C01C3
:1009F000C62F0E940A046C2F6460C8010E940A047A
:100A00006C2F6B7FC8010E940A0483EC90E0019771
:100A1000F1F7CF911F910F9108950F931F93CF93EB
:100A2000DF938C01D62FC42F607F642B0E94F404C7
:100A300080E1D89FB00111246C2BC801DF91CF91C8
:100A40001F910F910C94F404CF93DF93CDB7DEB7D1
:100A500028970FB6F894DEBF0FBECDBF98E0E0E058
:100A6000F1E0DE01119601900D929A95E1F79091D7
:100A70009203981708F48FEF90E0880F991F21E0F8
:100A800030E02C0F3D1F820F931FFC0160816068D6
:100A900040E08AE893E028960FB6F894DEBF0FBED8
:100AA000CDBFDF91CF910C940D0541E00E940D0563
:100AB00081E090E00895FB0101900020E9F7319773
:100AC000AF01461B570BDC01ED91FC910280F381D5
:100AD000E02D09944F925F926F927F92AF92BF92F6
:100AE000CF92DF92EF92FF920F931F93CF93DF93FA
:100AF000CDB7DEB7A1970FB6F894DEBF0FBECDBF5E
:100B00005C016A017B01F7FE47C0DC01ED91FC91BD
:100B10000190F081E02D6DE209958C0122273327A9
:100B2000A9012C193D094E095F0919A2FE01B196D0
:100B30007F019AE0492E512C612C712CCA01B90118
:100B4000A30192010E94040C605DD7016E937D01A8
:100B5000211531054105510589F790E080E0109796
:100B600021F0BD01C5010E945B05800F911FA19678
:100B70000FB6F894DEBF0FBECDBFDF91CF911F91AE
:100B80000F91FF90EF90DF90CF90BF90AF907F904C
:100B90006F905F904F900895AB01960119A28E015E
:100BA0000F5D1F4F8AE0C82ED12CE12CF12CCA0119
:100BB000B901A70196010E94040C605DF8016293DF
:100BC0008F01211531054105510589F790E080E03D
:100BD000309769F2BF01C5010E945B05C8CF85ED62
:100BE0008093BC008091660290916702A091680298
:100BF000B09169020796A11DB11D23E0B695A79596
:100C0000979587952A95D1F72091BC0024FD03C0C4
:100C100010926402089540916602509167026091BB
:100C2000680270916902452B462B472B69F30097A8
:100C3000A105B10541F025E32A95F1F700000197E0
:100C4000A109B109E1CF809165020C9464031F9260
:100C50000F920FB60F9211242F933F934F935F93F0
:100C60006F937F938F939F93AF93BF93EF93FF9374
:100C700081EE92E00E940D01FF91EF91BF91AF9143
:100C80009F918F917F916F915F914F913F912F91A4
:100C90000F900FBE0F901F9018951F920F920FB6D6
:100CA0000F9211242F938F939F93EF93FF93E091D3
:100CB000F102F091F2028081E091F702F091F802E6
:100CC00082FD1BC090818091FA028F5F8F7320910B
:100CD000FB02821741F0E091FA02F0E0EF51FD4F84
:100CE000958F8093FA02FF91EF919F918F912F91B1
:100CF0000F900FBE0F901F9018958081F4CF1F9218
:100D00000F920FB60F9211242F933F938F939F93BF
:100D1000AF93BF938091CD029091CE02A091CF026C
:100D2000B091D0023091CC0223E0230F2D3758F53B
:100D30000196A11DB11D2093CC028093CD0290930A
:100D4000CE02A093CF02B093D0028091D1029091B5
:100D5000D202A091D302B091D4020196A11DB11D7F
:100D60008093D1029093D202A093D302B093D40285
:100D7000BF91AF919F918F913F912F910F900FBE97
:100D80000F901F90189526E8230F0296A11DB11D04
:100D9000D2CF1F920F920FB60F9211242F933F9331
:100DA0004F935F936F937F938F939F93AF93BF9373
:100DB000EF93FF93E091D702F091D802309749F07A
:100DC000A685B7858585968D91FF14C09C91892352
:100DD000A1F4FF91EF91BF91AF919F918F917F917E
:100DE0006F915F914F913F912F910F900FBE0F9098
:100DF0001F9018959C91892361F7A389B4899C91D0
:100E00008589809589238C93868997890197F1F745
:100E1000608D718DA685B785558538E020E0CB01C2
:100E20000197F1F7822F90E095958795282F4C91A7
:100E3000452309F02068315091F7868D81FD20957A
:100E40008091D60290E001968F7399273091D50258
:100E5000381799F0A091D602B0E0A457BD4F2C935B
:100E60008093D602828D938D0197F1F7A389B4897F
:100E70008C919589892B8C93ACCF868D8160868FE0
:100E8000F1CF1F920F920FB60F9211242F933F9321
:100E90004F935F936F937F938F939F93AF93BF9382
:100EA000EF93FF938091B900887F803609F44AC0A0
:100EB000F0F5883209F4A7C018F5803109F49BC019
:100EC000B8F4882309F4F9C0883009F494C0FF917C
:100ED000EF91BF91AF919F918F917F916F915F91B2
:100EE0004F913F912F910F900FBE0F901F9018952B
:100EF000883109F488C0803251F78093620214C0AF
:100F0000803409F49DC040F48033B9F38833F9F696
:100F10008093620285ECB0C0803509F485C08835C5
:100F200009F496C0883499F60E94EF05D0CF88392D
:100F300009F48CC038F5883729F050F4883611F060
:100F4000803729F683E08093640210923D0257C0F7
:100F5000883809F47BC0803919F0803809F0B7CFA0
:100F600080913D02803208F071C0E0913D0281E045
:100F70008E0F80933D028091BB00F0E0E35EFD4F59
:100F800080833DC0803B39F0E0F4803A09F479C0B9
:100F9000883A09F09CCF84E08093640210921C028E
:100FA00010921B02E091DB02F091DC020995809126
:100FB0001B0281110FC081E080931B021092FB0184
:100FC00009C0803C09F4A6CF883C09F4A3CF883B34
:100FD00009F07DCFE0911C0281E08E0F80931C020E
:100FE000F0E0E550FE4F80818093BB0090911C02A1
:100FF00080911B0229C080913F028093BB0085EC49
:101000008093BC0064CF9091610280916002981738
:1010100058F5E091610281E08E0F80936102F0E06B
:10102000E05CFD4F8081E9CFE091610281E08E0FAD
:10103000809361028091BB00F0E0E05CFD4F808313
:1010400090916102809160029817C8F285E8D8CF2C
:10105000E091610281E08E0F809361028091BB007C
:10106000F0E0E05CFD4F80838091630281115CCFF2
:1010700081E080933E0284EA8093BC001092640277
:1010800026CF85EC8093BC001092640280913D02D3
:10109000803230F4E0913D02F0E0E35EFD4F1082DB
:1010A00060913D0270E0E091D902F091DA028DE1A9
:1010B00092E0099510923D020ACF1092620234CF5D
:1010C0001092E4021092E30288EE93E0A0E0B0E018
:1010D0008093E5029093E602A093E702B093E802C2
:1010E0002CE131E03093E2022093E10225EC30E084
:1010F0003093EE022093ED0224EC30E03093F002C6
:101100002093EF0220EC30E03093F2022093F102C2
:1011100021EC30E03093F4022093F30222EC30E033
:101120003093F6022093F50226EC30E03093F8027B
:101130002093F7021092FA021092FB021092FC0226
:101140001092FD021092810310928003809382031B
:1011500090938303A0938403B09385032EE231E040
:1011600030937F0320937E0310929903109298038B
:1011700080939A0390939B03A0939C03B0939D0349
:101180008CE491E090939703809396031092AD03C3
:101190001092AC031092AF031092AE031092B10301
:1011A0001092B0031092B3031092B2036091B40393
:1011B0006E7F6D7F6093B4036695617081E06827F0
:1011C00083E00E949C0161E083E00E94E801E1EB82
:1011D000F0E0E491E093A603EDE9F0E0E491F0E0C3
:1011E000EE0FFF1FE057FF4F859194919093A80356
:1011F0008093A70360E082E00E94E8018091B4033D
:1012000081FD04C061E082E00E949C0182E0809345
:10121000A203E0EBF0E0E491E093A303ECE9F0E05B
:10122000E491F0E0EE0FFF1FEA57FF4F2591349154
:101230003093A5032093A40310928D0310928C0386
:1012400020E431E030938B0320938A0397E290935C
:101250008E0390E1909393038093940310929503EF
:101260000895789484B5826084BD84B5816084BD1E
:1012700085B5826085BD85B5816085BD80916E0034
:10128000816080936E001092810080918100826065
:1012900080938100809181008160809381008091A2
:1012A00080008160809380008091B1008460809391
:1012B000B1008091B00081608093B00080917A008D
:1012C000846080937A0080917A00826080937A00B3
:1012D00080917A00816080937A0080917A008068A2
:1012E00080937A001092C1001092B1031092B00363
:1012F0001092AF031092AE031092AD031092AC03A4
:101300008DE991E09093B3038093B2039091A2038F
:10131000963108F047C02DEB30E03093AD032093B9
:10132000AC032BE931E03093AF032093AE032CE202
:1013300031E03093B1032093B0032091680084E042
:10134000983048F031E09E3008F430E081E001C090
:10135000880F3A95EAF7822B809368002DE630E0FB
:10136000983050F02BE630E09E3030F02CE630E044
:10137000963110F030E020E03093AA032093A903C7
:10138000292F30E0983008F0FEC181E001C0880FBD
:101390009A95EAF78093AB038091B2039091B303DF
:1013A0000197F1F78091B0039091B103892B49F136
:1013B000E091D702F091D80283E0E639F80709F10D
:1013C000309739F0A389B4899C91858980958923C8
:1013D0008C938091B4038E7F8093B4031092D602D5
:1013E0001092D50286E993E09093D8028093D702B9
:1013F000E091A903F091AA0380819091AB03892B1E
:101400008083E091F102F091F20282E08083E0912A
:10141000ED02F091EE021082E091EF02F091F00205
:101420008FEC80831092F902E091F502F091F602C0
:1014300086E08083E091F302F091F4028081806184
:101440008083E091F302F091F402808188608083D0
:10145000E091F302F091F402808180688083E09152
:10146000F302F091F40280818F7D80831092E0027C
:101470001092DF021092DE021092DD020E944603FB
:101480008DE890E09093DC028093DB028EE890E0A0
:101490009093DA028093D90210928F038091940383
:1014A000823018F098E090938F038093920362E368
:1014B00070E080E090E00E943E02609195038AE82F
:1014C00093E00E940A0468EE73E080E090E00E94DE
:1014D0003E0260E38AE893E00E94F404CBE4D6E4A1
:1014E000CE010197F1F760E38AE893E00E94F404EB
:1014F0002197F1F760E38AE893E00E94F40483E522
:1015000092E00197F1F760E28AE893E00E94F40428
:1015100060918F03606240E08AE893E00E940D05CD
:1015200084E08093900340E06CE08AE893E00E94BE
:101530000D0540E061E08AE893E00E940D05CBE3F1
:10154000DFE1CE010197F1F782E08093910340E063
:1015500066E08AE893E00E940D0540E062E08AE8D8
:1015600093E00E940D05CE010197F1F788E080938A
:10157000950360E08AE893E00E940A0440E061E09D
:101580008AE893E00E940D052197F1F780E00E9420
:1015900024056AE571E08AE893E00E945B0508E0B3
:1015A00011E0C0E1D1E08881229660E00E94E8016C
:1015B000F801F0800E5F1F4F61E08F2D0E94E8015F
:1015C00060E08F2D0E949C01F1E0C831DF0759F7E0
:1015D00061E088E00E94E80160E088E00E949C01F0
:1015E00020E0C22E20E0D22E08E011E080E1E82EBB
:1015F00081E0F82E812C912C54018394712CF701F9
:101600008081F2E0EF0EF11C8E3008F08E50877072
:10161000806480937C0080917A00806480937A005B
:1016200080917A0086FDFCCF80917800C09179008E
:10163000DC2FC82F6DE671E081EE92E00E945B0521
:10164000B501A40181EE92E00E946A0565E771E0B0
:1016500081EE92E00E945B05AE010D2E000C660B40
:10166000770B81EE92E00E946A0568E771E081EEF7
:1016700092E00E945B05F80180810E5F1F4FC53F1D
:10168000D1400CF48DC061E00E949C0161E088E0D3
:101690000E949C016BE771E086E993E00E945B0584
:1016A00068E771E086E993E00E945B0564E670E01C
:1016B00080E090E00E943E0265E871E086E993E0F8
:1016C0000E945B0564E670E080E090E00E943E02CC
:1016D0006BE971E086E993E00E945B05B501A40126
:1016E00086E993E00E946A0568E771E086E993E085
:1016F0000E945B056AE186E993E00E94890268EE38
:1017000073E080E090E00E943E0281E00E942405A8
:1017100067EB71E08AE893E00E945B05B501A401E4
:101720008AE893E00E946A05772473948FEF881A01
:10173000980AA80AB80A95E089169104A104B10490
:1017400009F05DCF711009C081E00E94240568ECAA
:1017500071E08AE893E00E945B0564E670E080E057
:1017600090E00E943E0260E088E00E949C01C1146B
:10177000D10409F439CF0E94F900882309F434CF49
:101780000E94000031CF9E3040F42850310981E0A2
:1017900001C0880F2A95EAF7FDCD2E503109F7CF09
:1017A00060E00E949C01C2CF8CE491E0909397038B
:1017B000809396038091D7029091D80286599340E6
:1017C00071F4E091A903F091AA0390818091AB0399
:1017D0008095892380831092D8021092D7020895B1
:1017E00097FB072E16F4009407D077FD09D00E94CE
:1017F000260C07FC05D03EF4909581959F4F0895E7
:10180000709561957F4F0895A1E21A2EAA1BBB1B0C
:10181000FD010DC0AA1FBB1FEE1FFF1FA217B307BC
:10182000E407F50720F0A21BB30BE40BF50B661FD2
:10183000771F881F991F1A9469F760957095809596
:1018400090959B01AC01BD01CF010895AA1BBB1B64
:1018500051E107C0AA1FBB1FA617B70710F0A61BB0
:10186000B70B881F991F5A95A9F780959095BC01D1
:10187000CD010895EE0FFF1F0590F491E02D09941E
:1018800010E0C2E6D0E004C0FE010E943A0C2196AE
:10189000C336D107C9F7F894FFCF00004000140009
:1018A000540004000500060007000E000F001000A1
:1018B0001100000000002F018F00BC007C01ED0032
:1018C000CB00DF0000000000DB03AE03F104880260
:1018D000A703940385030000000055058F00F10461
:1018E0001E030000000089028F00F1048802E50257
:1018F000FD027002506572696D65746572205365F2
:101900006375726974790053656E736F7220003A63
:1019100020000D0A0041542B434D47463D31004104
:10192000542B434D47533D222B3132333435363718
:101930003839302200496E74727573696F6E2044B5
:1019400065746563746564206F6E205369646520F7
:1019500000496E74727573696F6E3A2053696465DD
:1019600020005374617475733A2053656375726512
:041970002020200013
:107E0000112484B714BE81FFF0D085E080938100F7
:107E100082E08093C00088E18093C10086E0809377
:107E2000C20080E18093C4008EE0C9D0259A86E02C
:107E300020E33CEF91E0309385002093840096BBD3
:107E4000B09BFECF1D9AA8958150A9F7CC24DD24C4
:107E500088248394B5E0AB2EA1E19A2EF3E0BF2EE7
:107E6000A2D0813461F49FD0082FAFD0023811F036
:107E7000013811F484E001C083E08DD089C08234E0
:107E800011F484E103C0853419F485E0A6D080C0E4
:107E9000853579F488D0E82EFF2485D0082F10E0AE
:107EA000102F00270E291F29000F111F8ED06801E7
:107EB0006FC0863521F484E090D080E0DECF843638
:107EC00009F040C070D06FD0082F6DD080E0C81688
:107ED00080E7D80618F4F601B7BEE895C0E0D1E017
:107EE00062D089930C17E1F7F0E0CF16F0E7DF06D8
:107EF00018F0F601B7BEE89568D007B600FCFDCFD4
:107F0000A601A0E0B1E02C9130E011968C91119780
:107F100090E0982F8827822B932B1296FA010C0160
:107F200087BEE89511244E5F5F4FF1E0A038BF0790
:107F300051F7F601A7BEE89507B600FCFDCF97BE46
:107F4000E89526C08437B1F42ED02DD0F82E2BD052
:107F50003CD0F601EF2C8F010F5F1F4F84911BD097
:107F6000EA94F801C1F70894C11CD11CFA94CF0C13
:107F7000D11C0EC0853739F428D08EE10CD085E9AC
:107F80000AD08FE07ACF813511F488E018D01DD067
:107F900080E101D065CF982F8091C00085FFFCCF94
:107FA0009093C60008958091C00087FFFCCF809118
:107FB000C00084FD01C0A8958091C6000895E0E648
:107FC000F0E098E1908380830895EDDF803219F02E
:107FD00088E0F5DFFFCF84E1DECF1F93182FE3DFCA
:107FE0001150E9F7F2DF1F91089580E0E8DFEE27F6
:047FF000FF270994CA
:027FFE00040479
:00000001FF
